:020000041004E6
:1000000000000120359A0410231A04109D95041055
:10001000AA5555AA45554C420000000000000000BA
:10002000000000000000000000000000231B04107E
:100030000000000000000000871B0410A1950410C0
:10004000EB230410BF2B0410032C04103B370410C7
:10005000675B0410E3620410E36304103F64041060
:100060003B69041083690410EF6C04105F71041085
:10007000EF720410B18C0410EF730410AB950410F0
:10008000D5950410A375041013780410337E041062
:100090001F8004108F8004103F850410B388041063
:1000A0007F890410278B041000000000000000006E
:1000B0000000000000000000000000000000000040
:1000C00010B57F490A8812180A807E4A0B88148866
:1000D000A34203D10023138012880A8010BDFDB50E
:1000E00084B00C006846858A0CA8007869460870C0
:1000F00028007449098880B2884201D100202CE090
:1001000004267148290089B24018029001AF3200DC
:100110000299380001F05AFB68460078002812D195
:1001200001A8C1786A46127C91420CD12100C9B263
:10013000062904D021008078C9B2814203D10698F3
:10014000002809D006E0684680882D1800206946FE
:100150000870CDE706980580012007B0F0BDFFB517
:1001600085B00400607B002805D155480588002033
:1001700008A9087000E0E58908A80078009001ABA4
:100180002A0092B201212078FFF7A9FF002801D1AF
:10019000042020E00120607368468088E08106200A
:1001A0000290B44E684680883018009003AF029ADF
:1001B0000099380001F00AFB684680883018801DDD
:1001C0000699086003A80188891F079A11800079A1
:1001D0000E990870002009B0F0BDF1B584B0384820
:1001E00000886946888000263000C0B2009001ABCC
:1001F0006846828806216846007CFFF770FF002869
:1002000028D00425304C68468088201803906F461B
:100210002A000399380001F0D9FA00F0E3FD69469D
:100220000988471A68468088201869460988401856
:1002300002906846808824183A000299200001F054
:10024000F1FA204801886A461288891A0180012043
:100250000600C9E705B0F0BDC9B2CA4A514380B231
:10026000800880B21B224243881825307047F8B5B9
:1002700006000D00287800281FD001210020FFF77C
:10028000EBFF0700EFF3108472B6380001F0DAFAE2
:1002900000280ED0012332780021BB4801F096FBE4
:1002A00084F310883078401C30702878401E287005
:1002B000E0E784F31088072000E00020F2BD000092
:1002C000C00A0020C20A00205C07002010B502000E
:1002D0001368002010815081908190731900087874
:1002E000FF2806D150681C00001B001F90810020D1
:1002F0001BE00878FE2803D11089401C108108E01B
:100300000878002803D15089401C508101E0032067
:100310000BE04888C01C03240443641C1B1918000C
:10032000401D5468A042D9D3002010BDFFB585B050
:100330000400607B00280DD00F9800900123089ADC
:1003400007992000FFF70BFF002801D100208EE065
:1003500004208CE06846008F002807D002A8694678
:10036000098F4180FE21017002AD00E06568606880
:10037000A168884202D22878FF2801D1042076E0C3
:10038000207B002802D0002020731EE0606869886E
:10039000C91C03220A43521C801860606068050073
:1003A0006068A168884202D22878FF280DD10F9892
:1003B00000900123089A07992000FFF7D0FE00283B
:1003C00001D1002053E0042051E028780028D7D044
:1003D0002878FE2801D0032049E06846007EFF28E7
:1003E00004D068786946097E8842C9D18948008866
:1003F0006946C880002001006A465171694608714B
:1004000068460079009001AB9B1C6846C2880221B7
:100410002078FFF764FE002817D0082615486946A3
:10042000C9884018009003AF32000099380001F0ED
:10043000CDF904986168884203D10120694648716A
:1004400003E0012069460871DAE768464079002830
:1004500096D16068001D079908606888089908802F
:100460000F98002802D068780F990870002009B012
:10047000F0BD00005C070020FBB584B01400002034
:100480000D9908800F9801906846008F009002AB8C
:1004900003AA6846017D0498FFF748FF050028007D
:1004A000C0B2002802D02800C0B228E0200069466F
:1004B000098980B2884201D3062020E0684600897D
:1004C000210089B2401A6946098E884205DA6846D9
:1004D0000089210089B2461A01E06846068E039819
:1004E000210089B240180090069F32000099380020
:1004F00001F06CF9684600890D990880002007B06A
:10050000F0BDF7B584B00600069802906846808A70
:1005100041490140684601806846808A69460988E9
:10052000401A69468870002468460088844210DAC0
:10053000042502980019039001AF2A00039938009E
:1005400001F044F9019A31190F4801F02AFA241DEB
:10055000EAE70020C0430190684684780298694623
:100560000988451801AF22002900380001F02EF952
:10057000019A684600883118034801F012FA07B062
:10058000F0BD00003423000000100040FAB583B035
:1005900004000A9E01AD521E03201043401C694610
:1005A0000880FE2028706846007B687068460088D6
:1005B000801968800021684600888019001D80B27B
:1005C000FFF74AFE0290EFF3108772B6029801F02F
:1005D00039F9002803D187F31088072017E0019A22
:1005E00021006E4801F0DDF9049A68460188200078
:1005F000001DFFF786FF0B9A310089B2684600881C
:100600002018001DFFF77DFF87F31088002005B03C
:10061000F0BD0000C00A0020FCFF0000FEB586B05F
:100620000400002528000E990880607B002828D04F
:100630000020009000230E9A02A92000FFF78FFDF2
:1006400000281CD10E9800886946098B401A69461B
:10065000098C884205DA0E9800886946098B451A8C
:1006600001E06846058C02986946098B4618079F89
:100670002A003100380001F0A9F800206EE00520C2
:100680006CE06846808F002808D003A86946898FEF
:100690004180FE21017003A8029001E06068029091
:1006A0006068A168884203D202980078FF2801D1CF
:1006B000042053E0207B002803D102980078FE2814
:1006C00001D005204AE0534800886946888001200F
:1006D000009001AB6846828802212078FFF7FFFC7A
:1006E000002811D008264A48694689884018009099
:1006F00004AF32000099380001F068F8059861688D
:100700008842E4D1052029E06846008B0299498897
:10071000884201D3062021E025730298408869466B
:10072000098B401A6946098C884205DA029840888C
:100730006946098B451A01E06846058C6068694680
:10074000098B4018061D079F2A003100380001F070
:100750003DF8029840880E990880002009B0F0BD4D
:10076000F8B50700FF26F64300210420FFF774FDCB
:100770000500EFF3108472B6280001F063F800283A
:1007800003D184F31088072007E0320039000348C2
:1007900001F007F984F310880020F2BD001000403A
:1007A00070B505000C001C482818C60A2300DBB2EF
:1007B00032000021D24801F009F970BDF8B50600F9
:1007C0000F0015006805400D002806D12A003900E9
:1007D000300001F027F9002817D0681EC9490143ED
:1007E000491CC90AC9B23000FFF7DAFF0024AC4245
:1007F0000BD22000042101F03AF980003A58311957
:10080000BF4801F0CEF8241DF1E7F1BD0000000063
:100810005C070020C00A00200000FCEF01210170ED
:100820000021418081807047FFB587B0109E00276E
:100830003C006846808C0190FF200090089D009A43
:100840000199280001F06EF9FE2069460876684695
:10085000808C001B001F69464882307800283AD0FF
:1008600006AD681C0390B088029005A80190684608
:10087000408A00900898210089B24018031D002288
:10088000FF210798FFF7F8FD694608746846808ADB
:10089000B0806846007C002804D00A98048068462E
:1008A000007C6EE06846808A68800420029006A87A
:1008B00001900898210089B240180090029A01998D
:1008C000009800F083FF00986888C01C0321014352
:1008D0006418641C1FE0B088019005A80090684669
:1008E000438A0898210089B2421871880798FFF757
:1008F00095FE694608746846007C002802D0684668
:10090000007C3EE06846808A7188401A401E0321C0
:100910000143491C0C006846808A7188401A401EB9
:1009200003210143491C6846C1826846408A6946E2
:10093000C98A88420BD2377070886946498A401844
:1009400070806846808C0A990880002019E068460B
:10095000C08A6946498A884208D101203070778070
:100960006846808C0A99088000200AE06846C08AA0
:100970006946498A884200D369E701203070778050
:1009800065E70BB0F0BDF1B59E488544002069468F
:100990000873B5489C4969440978142251434018AA
:1009A0004089002801D10020A6E00020009000230B
:1009B000AE4802880621944868440078FFF78FFB10
:1009C000002801D0092097E0202000F017FA002825
:1009D00001D1082090E009A98B486844007800F014
:1009E0007DFC07000A9C05A8FFF718FF05A803C8AF
:1009F00007AA03C2083A0DA809A9102200F0CCFEEC
:100A000080252D0105A8009003AB9B1C2A0011A98D
:100A100009A8FFF709FF07003800C0B2042806D074
:100A20003800C0B2002802D03800C0B264E0684686
:100A3000C0892900884203D03800C0B20028D5D030
:100A40006846C08900282FD001216846C089FFF779
:100A500003FC0490EFF3108672B6049800F0F2FEE7
:100A6000002811D186F310886846007B002801D148
:100A7000072041E007A803C80190029100940DA847
:100A80000FC800F038FA37E06846C28911A9200083
:100A9000FFF794FE86F310880120694608736419F5
:100AA0003800C0B20028A1D00B98401E1549014360
:100AB000491C081BC00A69464870AB482018C00A88
:100AC0006946087000A9491C6846FFF7D0FB072853
:100AD00009D168464278684601784B4868440078F6
:100AE00000F034FA08E06048474969440978142264
:100AF00051434018FFF7EAFBBE498D44F0BD0000AA
:100B000000100040FF070000F0B5BB4CA5440400F6
:100B100003A821001831062200F058FE05A8211D67
:100B2000102200F039FE80252D01200018300090A1
:100B300001AB2A0009A9201DFFF776FE07006846D1
:100B400080882900884203D03800C0B20028DFD056
:100B50006846808800282BD0002168468088FFF7EF
:100B60007BFB0290EFF3108672B6029800F06AFEEB
:100B700000280ED186F31088201D05A9102200F050
:100B80000BFE2000183003A9062200F01FFE0720EC
:100B900034E06846828809A96069FFF70FFE86F392
:100BA00010886069401960613800C0B20028AFD079
:100BB000E068401EB5490143491C6069081AC00A33
:100BC00069464870606968494018C00A69460870FB
:100BD00000A9491C6846FFF74AFB072807D1684669
:100BE000427868460178207900F0B0F906E01E48A6
:100BF0002179142251434018FFF768FBA4498D4422
:100C0000F0BD0000B8F7FFFF48080000F0B5A14CA8
:100C1000A544060000206946C87100206946887115
:100C200000253079854225DAB0680C216943405CA3
:100C3000694608710C4869460979142251434018E5
:100C40004089002802D00120694688710020009068
:100C5000002306480288062168460079FFF73FFA1C
:100C6000002805D009207CE0E8090020C00A002007
:100C70006D1CD6E768468079002801D1002070E01D
:100C800080273F013A00FF210BA800F072FF0024EB
:100C9000307984422ADAB0680C216143405C6946AD
:100CA0000871B0680C21614340184068039007A99F
:100CB0006846007900F012FB694648716846407941
:100CC000002801D000204CE005A8FFF7A7FD05A8EB
:100CD000009002AB38000399421A92B20BA8039914
:100CE000411807A8FFF7A0FD641CD1E701213800D7
:100CF000FFF7B2FA0490EFF31080009072B60498F8
:100D000000F0A0FD002804D1009880F3108807208F
:100D100027E03A000BA93068FFF750FD009880F3F8
:100D2000108800253079854219DAB0680C216943B2
:100D3000405C694608719648694609791422514316
:100D40004018FFF7C3FA69464871684640790028A1
:100D500003D0684640796946C8716D1CE2E7684671
:100D6000C0798C498D44F0BD0000FCEFF2B5010064
:100D700000200300022B0FDA874C0C255D43641919
:100D8000A479220014000D00E4B2EDB2AC4201D10E
:100D9000022026E05B1CEDE70300002B20D50400B9
:100DA000A94D0C265E43AE193679B44216DA0C26EC
:100DB0005E43AE19B6680C276743F65D3200160035
:100DC0000F00F6B2FFB2BE4206D10C2058432818DD
:100DD000009D2860012004E0641CE1E75B1CDCE767
:100DE0000020F2BD9948008899490988401A80B2CC
:100DF000704700004C080000DCF7FFFFF1B582B03F
:100E0000FFF7F0FF040080204000210089B2411A62
:100E10006A461289914201DA002017E08B4D298839
:100E2000401A6946098988420FDA200080B2019091
:100E3000874E884F308838180090019A0099380002
:100E400000F0F0FC002030802C800120FEBDF1B5C8
:100E500082B00C007D4D802040002988401A21007E
:100E600089B2884201DA00200FE02600B6B202986B
:100E7000009078482988471832000099380000F01F
:100E8000A5FC2888001928800120FEBDFF0700006E
:100E900024080000D4F7FFFFF7B582B00A9E0B9C30
:100EA0000C9D5B1E03271F437F1C3819801D80B2D9
:100EB000FFF7A4FF002801D108201AE068460121AD
:100EC00081703919891D01806946097AC1706946A6
:100ED000097B017106216846FFF7B9FF390089B225
:100EE0003000FFF7B4FF210089B22800FFF7AFFF01
:100EF000002005B0F0BD1FB588B00E9C2020FFF784
:100F00007DFF002801D108201EE0684620210180D5
:100F1000032181706846001D08A9102200F03CFCE6
:100F20000594684618300FA9062200F04FFC2021D6
:100F30006846FFF78CFF0120154908AA1278142390
:100F40005A438918887300200CB010BD7CB504008A
:100F50000D0016000620FFF751FF002801D10820E0
:100F600014E068460621018004218170C470057177
:100F7000467106216846FFF76AFF012004492200F6
:100F8000D2B214235A4389188873002076BD00001A
:100F9000E80900202C080000509A0410F1B56948B7
:100FA00085440E0080273F013A00FF2108A800F089
:100FB000E0FD00243079844229DAB0680C216143D5
:100FC000405C6946087168460079822109016944DC
:100FD0000978884219D004A96846007900F07EF9A2
:100FE000B0680C2161434018456802A8FFF716FC61
:100FF00002A8009001AB9B1C38002900421A92B253
:1010000008A8411904A8FFF70FFC641CD2E70121CE
:101010003800FFF721F90500EFF3108472B62800BD
:1010200000F010FC002803D184F31088072007E0AB
:101030003A0008A93068FFF7C1FB84F3108800204C
:10104000C6498D44F0BD0000B4000020C20A002053
:10105000C00A00205C070020FBB582B0040003201A
:10106000BF4E3100511805000D436D1C6168491DCC
:10107000A26891420BD3C9482178142251434018E9
:101080004089002801D00B205AE0022058E0616816
:101090000F003978FF2913D1A0686168401AB04267
:1010A00003D2A0686168461AFFE7300080B22900C9
:1010B00089B26A46128D8918091D88421CDA0FE030
:1010C0003978FE2904D03978002901D0032037E08F
:1010D00061687A88D21C0243521C89186160C5E796
:1010E000AE4821781422514340184089002801D08D
:1010F0000B2025E0022023E00B9801906846008D2C
:101100000090049B2A0092B26846017B6068FFF75A
:101110003DFA01000800C0B2002802D00800C0B2A9
:101120000EE09E4B2078142250431A189C462078DB
:1011300014235843634618180089401C108100206E
:1011400005B0F0BDE0F7FFFFFEB50025002D7AD514
:10115000934F0C2068433858019000260C206843B8
:101160003818007986426CDA0C2068433818806899
:101170000C217143405C04000C20684338188068DF
:101180000C2171434018406802900C2068433818C5
:1011900080680C21714340180089694648807F4867
:1011A0002100C9B2142251434158002903D1210022
:1011B000C9B2022901DB01208FE00199029A891846
:1011C0002200D2B214235A4381500C21694379186A
:1011D0000979491E8E420AD101998022120189188B
:1011E0002200D2B214235A43821851600FE00199B1
:1011F0000C226A43BA1892680C237343D2181269FE
:1012000089182200D2B214235A43821851606946C9
:1012100049882200D2B214235A4382181182210035
:10122000C9B2142251434018FFF750F869460870BC
:1012300068460078002802D0684600784DE0761CA9
:101240008CE76D1C82E70025022D45DA55480C21FC
:101250006943411889790C0050492200D2B2142305
:101260005A438A58002A03D12200D2B2022A01DB53
:10127000012032E00C226A4382582300DBB214269C
:101280007343CA500C226A4382580C236B43C31821
:101290009B88D2182300DBB214267343CB185A6004
:1012A0000C226A43801800892200D2B214235A43C8
:1012B0008A1810822000C0B2142250430818FFF789
:1012C00005F86946087068460078002802D068462C
:1012D000007802E06D1CB7E70020FEBD10B50200EB
:1012E0001000C0B2022801DB012013E02B481300DC
:1012F000DBB214246343C3584B601300DBB21424E5
:101300006343C01840688860012008730A70002099
:101310004873002010BDF8B584B004000F0016001B
:101320001D001E482178142251434018807B00285C
:1013300001D00A2010E000200390002002900B98BA
:1013400001906846008D00902B00320092B2390067
:10135000C9B22000FFF790F805B0F0BD24080000E6
:10136000FFFF0000FEB504000F0016001D000B4833
:101370002178142251434018807B002801D00A2094
:101380000BE000200190089800902B009BB23200E7
:10139000390089B22000FFF741F9FEBDE8090020BD
:1013A000B4000020509A0410FAB583B00600464CF1
:1013B0003078142148432018807B002801D0092070
:1013C0007FE0521E032717437F1C307814214843C7
:1013D00020188089390089B26A46128D891888429E
:1013E0000ADA30781421484320184089002801D0B7
:1013F0000B2066E0022064E00020009000233348C8
:10140000028806213078FEF76AFE002816D00B9875
:1014100002906846008D0190049800903B009BB2BA
:1014200072686846017B3078FFF736FD05002800BA
:10143000C0B2002832D02800C0B242E00B98019020
:101440006846008D0090049B3A0092B26846017B8A
:101450003000FFF701FE05002800C0B200281DD0B3
:101460002800C0B2072802D02800C0B229E00B989B
:1014700002906846008D0190049800903B009BB25A
:1014800072686846017B3078FFF706FD050028008A
:10149000C0B2002802D02800C0B212E03078142177
:1014A00048432018317814225143611889896A46CB
:1014B000128DBA18521E03231343C91A491F818182
:1014C000002005B0F0BD0000E8090020C00A00209F
:1014D00038B5040069462000C0B2FFF747FC05009C
:1014E0002800C0B2022804D12000C0B2FFF74BFA96
:1014F00008E02800C0B2012803D10098FFF786FB5E
:1015000000E0012032BDF0B599B09E4D28889E497B
:101510000988884200D1EDE004269C4C28882018D8
:10152000049003AF32000499380000F04FF903A88B
:101530008078012809D000D2D5E003285AD02BD3D7
:10154000052800D196E06BD3CDE006272888201827
:1015500004900BAE3A000499300000F037F90BAE5E
:101560000DA9F078FFF7BAFE00200190002000904E
:1015700028882018831D3288921F92B231790DA8D5
:10158000FFF76AFD694608726846007A002802D0B3
:101590006846007ABAE0A8E008262888241809AD31
:1015A00032002100280000F011F90A98FFF7D8F85E
:1015B000694608726846007A002818D109A874495B
:1015C000C27814235A438A18C37814246343CB186F
:1015D0001B895B1E1381C27814235A438A18C07872
:1015E0001423584308184089401C50817DE0684608
:1015F000007A8BE020262888241811AD32002100C3
:10160000280000F0E3F811A8FFF77EFA6946087297
:101610006846007A002802D06846007A76E064E0E6
:101620000627069728882018059007AE069A059980
:10163000300000F0CBF807AE711D301DFEF717FE2D
:1016400069460872049707AF28882418049A39005D
:10165000200000F0BBF86846007A002807D14C480B
:10166000F178142251434018FEF730FE3DE0684601
:10167000007A4BE00826288825186C46320029009D
:10168000200000F0A3F86C460199E078FFF786FC93
:10169000694608726846007A00281CD10025019826
:1016A0000079854217DA019880680C216943465C0D
:1016B0003000E178C0B2884203D03000C0B2FEF7FB
:1016C0008CFD33483100C9B2142251434018FEF753
:1016D000FDFD6D1CE3E76846007A002802D06846ED
:1016E000007A13E001E00C2010E068468089FEF7E4
:1016F000E7FC0AE700F00CF80400200040B20028E4
:1017000003D42000C0B2FFF7E3FE002019B0F0BD03
:1017100030B5204801781E4A0B00DBB21424634325
:10172000D3185B89002B19D00B00DBB21424634360
:10173000D3189B890C00E4B214256C431219128A49
:1017400093420BD20A00521C027000228256022AD7
:1017500001D100220270080040B212E0491C0A00C8
:10176000D2B2022A01D1002211000A00D2B2002313
:10177000C35612B21BB29A42CDD100220270002091
:10178000C04330BDC00A0020C20A00205C07002010
:10179000E8090020C70A002070B4103A03D378C9C2
:1017A000103A78C0FBD2530701D318C918C001D52D
:1017B00008C908C0D20704D30B880380891C801C89
:1017C000002A01D50B78037070BC70478B0701D1DC
:1017D0008307E1D0124205D00B78491C0370401CEE
:1017E000521EF9D1704730B501684118446862084B
:1017F0008A188368E40704D54C461B1901E0641C71
:1018000009D1914203D00C7864B2491C01E00C303C
:1018100030BD0D78491C1D705B1C002CEFD4641E7C
:10182000F7D5EEE7814202D25318984203D300B5B0
:10183000FFF7CCFF00BD521E03D38B5C8354521EB6
:10184000FBD2704758B5040000F06CFC06006846F7
:1018500000F0C0FD002801D1012006E00098801BA7
:10186000844201DA012000E0002052BD10B5FFF7EC
:101870006BFC434C21000020FFF730FD4149012063
:10188000FFF72CFD4048046010BDFEB504000F00BA
:1018900016001D002000C0B2022803D139483A4981
:1018A000086002E036483849086001956846008CB7
:1018B00000903B00320092B22100C9B23248006869
:1018C000FFF772FD01000800C0B2002801D100201E
:1018D00008E00800C0B2022802D10020C04301E0A5
:1018E0000120C043FEBDF3B583B017001E000A9D62
:1018F0006846007C022804D122482349086001245C
:1019000003E01F482049086000246846007B022845
:101910000CD102A800902B009BB23200390089B292
:1019200019480068FFF71EFD010018E06846007BBB
:10193000002805D1144801682000C0B2FFF7CEFC92
:1019400002A80190280080B2009033003A0092B2C1
:101950006846017C0C480068FFF7DDFC01000800C8
:10196000C0B2002801D1002008E00800C0B204285D
:1019700002D10220C04301E00120C04305B0F0BD08
:10198000680A0020780A0020A80A002000B5006933
:101990000840884201D1012000E0002000BD016123
:1019A000704770B504000D0016000F212000FFF7EE
:1019B000F6FFA80880B2A0612664332020600121D0
:1019C0002000FFF7E3FF0128F9D170BDF8B504004E
:1019D0000E001700FF2E0CD10F212000FFF7DFFFB4
:1019E0002220206001212000FFF7D0FF0128F9D13B
:1019F00016E03D0000983818854211D20F212000D2
:101A0000FFF7CDFFE802800880B2A06111202060BE
:101A100001212000FFF7BAFF0128F9D16D1CE9E789
:101A2000F1BD7047A446521E08D303780C78401CC1
:101A3000491CA342F7D0181B644670470020644637
:101A40007047F446002804D4494200F013F840429D
:101A500060474042002905D45FD000F00BF84042B7
:101A600049426047494200F005F849426047034651
:101A70000B43E6D40022030A8B420BD203098B42AC
:101A800019D243088B422ED2411A00D2014652414C
:101A900010467047FF2209023FD012068B4205D341
:101AA000121209028B4201D31212090203098B425E
:101AB00019D300E0090AC3098B4201D3CB01C01A34
:101AC000524183098B4201D38B01C01A5241430911
:101AD0008B4201D34B01C01A524103098B4201D3FF
:101AE0000B01C01A5241C3088B4201D3CB00C01A6C
:101AF000524183088B4201D38B00C01A52414308E4
:101B00008B4201D34B00C01A5241884200D3401A85
:101B10005241CFD201461046704708B500F064FC30
:101B200008BD70471206130A1A43130C1A4300BF6C
:101B3000094205D0830705D00270401C491EF9D127
:101B4000704700001300103906D330B4140015009C
:101B500010393CC0FCD230BC490700D30CC000D5C2
:101B600004C0890002D30280801C002900D50270C5
:101B7000704710B504000800110002002000FFF7B4
:101B8000D1FF200010BD704700B5010049B2002907
:101B900005D40121C206D20E9140B64A116000BDA3
:101BA000F8B586B005000F0000243C70A87A002824
:101BB00061D0B1480CC80838B048006800218018CE
:101BC000594104AA03C2083AEFF3108672B600F036
:101BD00071FE02AA03C2083A03CD083D00900191AC
:101BE00004A803C8C8229202002312184B4100988F
:101BF0000199994210D301D890420DD304A803C88B
:101C0000B9225200002312184B4102A803C88B428C
:101C10002CD801D3824229D202A803C800220A305C
:101C200051410090019103CD083D00224C38914173
:101C3000009A019B8B4212D801D382420FD22A7A9A
:101C4000297B0B0003CD083D190000F0BDFE387064
:101C5000AC7201206872E87286F310880BE0AD4820
:101C6000847286F310880120387004E00120B049A6
:101C7000087086F3108807B0F0BD10B5040000F0BE
:101C8000B5FD01207D49087110BD30B5020013007B
:101C900000241000002B04D08B4202D01C001B69D2
:101CA000F8E7002B06D0934202D11D69280001E01D
:101CB0001D69256130BDF8B504000F002500002620
:101CC0000094002D0BD00CCD083D03CF083F8B4274
:101CD00005D801D3824202D22E002D69F1E73D6181
:101CE000002E01D1009700E037610098F2BDF1B5F8
:101CF00088B00F00089C08980490002630003870C7
:101D0000002C67D0207B002862D0EFF31080039076
:101D100072B63000694608727E4D02A9491C28003F
:101D2000FFF73EFF00F0C6FD02000B0003CC083CAD
:101D3000801A994106AA03C2083A06A803C80029D6
:101D400040DB01DC01283DD303CD083D009001912B
:101D500003CC083C02000B00934800680021801867
:101D60005941009A019B8B4215D801D3824212D26D
:101D7000687A00280FD00CCD083D03CC083C8B427C
:101D80000CD301D8824209D3687A002806D00120FA
:101D90008649087002E001206946087202A90A001B
:101DA00006A803C8110000F0CCFD6846007A01289F
:101DB00004D1A87A697A0143A9726E72039880F3FC
:101DC000108807E001203870039880F3108801E044
:101DD000246995E73878002801D0049800E02000B5
:101DE00009B0F0BDF2B584B007003C0000250195B4
:101DF0000097049807602E00002C19D0207B002843
:101E000012D000F057FD02000B0003CC083C801AF2
:101E1000994102AA03C2083A02A803C8002903DBB9
:101E200001DC062800D303E001942469761CE3E773
:101E3000002E03D001980561009401E0049805602C
:101E4000009805B0F0BD1CB50C4C6946A068FFF7C2
:101E50004EFFA06068460078012809D1207D401C13
:101E6000617D884201D1207D01E0207D401C2075EC
:101E700013BD000000E100E0500A00209C0000209B
:101E8000F8B5040016001F00002069460870207B8A
:101E9000002801D0012024E0C0C4083C01202073A8
:101EA000434D2100A868FFF706FFA04217D16946FD
:101EB0002000FFF71CFFA8606846007800280ED0BD
:101EC000EFF3108072B6297D491C6A7D914201D1E1
:101ED000297D01E0297D491C297580F31088684619
:101EE0000078F2BD38B504002000C0B2002809D047
:101EF0002F4D287B00280BD12E48FFF7BEFE012076
:101F0000287305E02B4800F0E1F800202849087309
:101F100031BD0000880A0020694801784906490E51
:101F200001700020674908707D4908707047000003
:101F3000C90A0020F8B500F0F1FC634C0025657279
:101F4000A572E572EFF31080009072B600F0B2FC5B
:101F500006000F0000F0F2FC020003CC083C801BDE
:101F6000B9410023801A994106000F00009880F3C0
:101F700010886E480068C005C00D1038122801D0C6
:101F8000FFF761FF002F04DC01DB012E01D20120ED
:101F900007E0002F04DC01DB0F2E01D2022000E05D
:101FA0002800C0B2F2BD0000BC0A0020C80A002010
:101FB0009C000020380A0020F8B5070014001D001E
:101FC00022002B003800FFF75BFF06000120FFF71F
:101FD00089FFF6B23000F2BDF5B587B00F000025DD
:101FE000280069460872384C277308A800782072C8
:101FF0008E4A03CA083A00900191079B03CA083A27
:10200000181A0021009A019B8018594103C4083C0A
:1020100028006072E5720126A67200F04BFC04AA4B
:1020200003C2083A424DA868002804D102A9200042
:10203000FFF7B6FD3BE0A8680CC8083804A803C841
:102040008B421ED301D882421BD303CC083C0090A4
:102050000191A86803C802000B00754800680021C0
:1020600080185941009A019B8B4206D801D38242C5
:1020700003D2A868007B002803D1A868007B002851
:1020800013D102A92000FFF78BFD0CCC083CA868F7
:1020900003C88B420BD301D8824208D3A868007BC7
:1020A000002804D02348067001E0FFF735FF012027
:1020B000FFF718FF6846007A09B0F0BD0000000085
:1020C000C4000020D6000020880A00207CB506004D
:1020D000174C3100A068FFF7D8FD050000206946C5
:1020E00008703073A068A84218D069462800FFF72E
:1020F000FEFDA06068460078002810D0EFF3108045
:1021000072B6217D491C627D914201D1217D01E0A1
:10211000217D491C217580F3108800E0A56073BD06
:10212000D700002080B500F0C5FB04BD04ED00E041
:102130009C000020C80A0020F8B5070000F0F4FC5D
:1021400001269B480168314301609A480168314388
:1021500001601820FFF718FD3888C92803DB38888C
:102160003349086002E0C820314908601420FFF7B5
:102170000BFD6846B97881707968002901D031007B
:1021800000E00021C17039880180684600F0A6FA9D
:10219000264800F09DFB854D0024AC60300028737C
:1021A0007868002800D12600AE752000E875824AC4
:1021B00020005072200090722000D0720020002178
:1021C00003C2083A38882861200028752000687505
:1021D000786800030A21FFF74DFC28602000287171
:1021E0002868002804D1754800F0B2FC28600CE093
:1021F000724E300000F0ACFC2968814201D22868A0
:1022000002E0300000F0A4FC28606D4E6D48B06024
:10221000746100F04FFB2A68002312184B41300014
:10222000FFF72EFE286800F067FBF1BD500A002082
:10223000BC0A0020FEB5002069460870EFF310804C
:10224000029072B65C48407A00280DD000F032FB54
:1022500002000B00584C03CC083C994204D801D32F
:10226000904201D200206072029880F310884F4C97
:10227000207D617D884203D3207D617D401A05E089
:10228000207D617D401A802149004018002840D0FF
:10229000207D617D884205D3207D617D401A69469D
:1022A000487004E0207D617D401A69464870464FC1
:1022B00001A9A068FFF796FD3860019D002D0AD0A6
:1022C0002E6900202873A868002802D02800A96879
:1022D00088473500F2E76946A068FFF708FD3860D7
:1022E0006846007801280ED1EFF3108072B6217D88
:1022F000491C627D914201D1217D01E0217D491C73
:10230000217580F31088607D6946497840186075B2
:10231000ADE72079002832D000F072FA002843D1CE
:10232000002528002071A07D002805D1E07D00282F
:1023300002D02800E07504E000F070FA234800F0B5
:10234000C7FA2348017800290BD005701A480121EB
:1023500081726946FFF724FC6946A068FFF7C7FC55
:10236000A060174D2800FFF7B1FE00F0A3FA226825
:10237000002312184B412800FFF782FD14E0134C94
:10238000207C002810D000F095FA0CCC083CFA24F0
:1023900064030025A4185D418D4205D801D3844211
:1023A00002D20748FFF769FCF7BD00009C0000203F
:1023B0004418006040180060880A0020FFEFFFFF0B
:1023C000380A00207B1C0410A4000020500A0020C2
:1023D000C90A002003490968CA680260087C00092C
:1023E00070470000740000207047704700B501007E
:1023F00049B2002905D40121C206D20E9140B04A4B
:10240000116000BDA748016801220A430260002054
:10241000AC4908607047F1B582B0AA49086840032A
:10242000400B0A685203520B904201D1002804D19C
:102430000A685203520B1000F3E7A34902120192FB
:10244000C2B20092019A4A43009B4B431B12D2181E
:1024500010325211029B5A62029A90619B4A9C4C24
:1024600023685B015B0925686D016D09AB4201D1F1
:10247000002B04D125686D016D092B00F3E79C1139
:10248000250055432E0080363612029F3E62029E82
:10249000F361F7BD10B50400FFF7B4FF8148006891
:1024A000C007FBD52000FFF7B6FF10BD0100682074
:1024B0004843DB224A43000A120C8018704738B5A3
:1024C0000400C448C06900212200002300F05EFB24
:1024D0000322002300F05AFB02000B008020C004FE
:1024E000002180185941C00E4D012843C90E32BD4C
:1024F000F3B585B0EFF31080019072B6059803C86C
:1025000002AA03C2083A7348006806990860069850
:1025100000680599C96A401A00906F4D02A8C0C8AA
:1025200008382A000598416A009800F049FB00210C
:102530008019794106000F00A64C2000383003C8EE
:102540008F420ED801D386420BD22A000598416AE9
:102550000020C04300F034FB0021801979410600BF
:102560000F0020003830C0C00838019880F3108870
:102570003000390007B0F0BD1CB5040069462000EA
:10258000FFF7B6FF1CBD38B5050093480078C0B210
:102590007D214843FA218900FFF769FA0400641C91
:1025A0008E4A296A1B2000F00BFB8D4908708D486C
:1025B0000078C0B2FFF783FF492168548A48007849
:1025C000C0B22100C9B24018FFF779FF4121685419
:1025D0008A480078C0B22100C9B24018FFF76FFFE7
:1025E000422168548B480078C0B2FFF768FF43214E
:1025F000685489480078C0B2FFF761FF44216854ED
:1026000031BDF8B5040033480568A76A324E320080
:102610003900206B281A00F0D3FA210008310CC9C8
:10262000083900218018594103C4083CA4480078A7
:10263000002811D1206B281A616B88420CD232001D
:1026400039000020C04300F0BBFA0CCC083C00214C
:102650008018594103C4083CE562256303CC083C5B
:102660002200083203C2083A606AA062F1BD38B5A0
:1026700005000C00594A2100280080B200F0A0FAA1
:1026800080214901884201DB8E490800102801DAC7
:10269000102108004F4902118A82898A954A1160E7
:1026A00031BD000010100060874801784906490ECE
:1026B0000170002085490870944908707047000037
:1026C00000E100E008100060F6BC080053070000BD
:1026D0000C1000601018006035060000F8B5070007
:1026E0003C4C388820613C480078C0B27D2148438A
:1026F000FA218900FFF7BBF90600761C844D286893
:102700001028FBD3F878002802D1B87800280ED022
:1027100080480068C007FBD57F48016817220A433C
:1027200002602000FFF7B6FE606AA06209E0C820E0
:102730004003A06260627E4820627E48A0617E48BD
:10274000E061F87840216054216A206980B2FFF787
:102750008EFF002210004A2160540020002103C493
:10276000083C2B68E362E36A23632300383303C326
:10277000083B2300083303C3083B4B2022542000AE
:10278000FFF701FF18480078C0B23100C9B2401805
:10279000FFF78CFE1B304521605418480078C0B20A
:1027A0003100C9B24018FFF781FE1B30462160544A
:1027B00018480078C0B2FFF779FE1B3047216054FB
:1027C00015480078C0B2FFF771FE1B3048216054F5
:1027D000F1BD000068090020CE00002026030000A3
:1027E000C5000020C6000020C800002080B5344885
:1027F0000078002801D0FFF705FE01BDC9000020C8
:10280000444800680100C907C90F01204840C0B210
:1028100070470000CA000020CB00002038B594B0FB
:10282000684C4020205C00283AD0684621005022A5
:10283000FEF7B2FF6846FFF7EEFD0899049880B2F4
:10284000FFF715FF6846FFF79EFEEFF3108572B69F
:1028500001204B2160540698A0610798E061089818
:102860002062099860620A98A06268464121415C32
:102870004122A1544221415C4222A1544321415CA6
:102880004322A1544421415C4422A1544921405C8B
:10289000492160542000FFF7B4FE85F3108807E05B
:1028A000EFF3108572B62000FFF7ABFE85F31088BA
:1028B00015B030BD80B54348FFF75EFE04BD000093
:1028C000A8090020FF0F0000C4000020D60000204F
:1028D00002003C4B4020185C1074D869D06018008E
:1028E000083003C803C2083A98699060186B5061B9
:1028F000704700000818006038B50500314C7A4A6E
:10290000216A280000F05CF9606331BDD700002027
:10291000101800601010006004100060002073495F
:102920000860734801687E4A0A40026070470000F0
:10293000C2F528008D5B0000ECEB65018248007851
:102940007047F8B504000F00674A1E48016A20006E
:1029500000F036F9212801D3040000E02024664865
:1029600005682819083065490860614E3068802183
:102970008905014331606B4801688022D2050A4312
:1029800002605A480168022905D00068032802D075
:102990003878012803D000203870280011E0FFF7B4
:1029A00083FE281908300F21884352490860306897
:1029B0000721884330603068C021C9050143316078
:1029C0002800F2BD68090020F7B584B06846007D94
:1029D000012811D16846007E002806D05B484121BD
:1029E000445C4521405C009017E058484221445C1B
:1029F0004521405C009010E06846007E002806D02B
:102A000052484321445C4521405C009005E04F481A
:102A10004421445C4521405C00904C4D049E01A93A
:102A20002800FFF765FD301A02902F4A296A0298A4
:102A300000F0C6F80700009829694018C8300299CC
:102A4000884217D247480178791A0E1B01998919D3
:102A5000284A116026490A6807239A430A6000221F
:102A6000224B1A600A68C023DB0513430B60007811
:102A7000241812E04920285C381A061B0198801996
:102A80003049086002201949086019480168244A41
:102A90000A4002604920285C24180198C019E864A3
:102AA0003148017880220A430270F0202F490870D3
:102AB000FF202F49087031192000401D814209D2A2
:102AC00000200A4908600A480168154A0A40026065
:102AD000012007E0274A696A200000F071F84A21C6
:102AE0006854002007B0F0BD260300000C00006011
:102AF0002818006024180060101800602C1800606E
:102B0000EFF3108072B61C4909680A00921C0D4B45
:102B10001A600222194B1A6080F310887047000077
:102B2000FFFFFFBF3018006080B5012014490A681C
:102B300002430A6013490A68104308601720FFF730
:102B400055FC01BD10000060B2090020680900209A
:102B500010B50400074A0C48416A200000F030F824
:102B600010BD0000C5000020C4000020D6000020D9
:102B7000D700002035060000101800600C0000602F
:102B80004C180060481800606809002030B44343C6
:102B900051435D18010C0C00130C5C432D1980B2DD
:102BA000434392B251430024C918644124040B04E6
:102BB000090C09195043C018694130BC704770476F
:102BC00010B5904216D98AB2030C090C0C46594331
:102BD00080B25343444350431B191A041B0C101872
:102BE000594180225203002312184B41520DD80242
:102BF000104310BD4843802252031218520D104654
:102C000010BD704788490A680860704787490A689C
:102C10007F239A4343065B0E13430B607047834840
:102C2000016880220A430260704780480168802260
:102C300091430160704710B47C490A687C4B134093
:102C40000202FF24240214401C430C6010BC704795
:102C500010B476490A68824B13400204FF2424040E
:102C600014401C430C6010BC704770490A68120283
:102C7000120A030613430B6070477A490A68FF2360
:102C80009A43C3B213430B60704710B475490A6886
:102C9000674B13400202FF24240214401C430C60C3
:102CA00010BC704710B46F490A686D4B13400204A2
:102CB000FF24240414401C430C6010BC7047694975
:102CC0000A681202120A030613430B607047714927
:102CD0000A68FF239A43C3B213430B60704710B4D2
:102CE0006C490A68524B13400202FF24240214402C
:102CF0001C430C6010BC704710B466490A68584BFE
:102D000013400204FF24240414401C430C6010BC34
:102D1000704710B45F490A686F4B13400206FC24E9
:102D2000A40514401C430C6010BC70476B490A6832
:102D3000FF239A43C3B213430B60704710B4674933
:102D40000A68674B13400202664C14401C430C6037
:102D500010BC70476448016804220A43026070474F
:102D600061480168802212040A43026070475E488D
:102D700001688022D2050A430260704710B45B49A3
:102D80000200D2B250235A438A5840231343020010
:102D9000D2B2502462438B5010BC704710B45349D8
:102DA0000200D2B250235A438A5840239A43030068
:102DB000DBB250246343CA5010BC704710B44B4977
:102DC0000200D2B250235A438A5880231343020090
:102DD000D2B2502462438B5010BC704710B44349A8
:102DE0000200D2B250235A438A5880239A430300E8
:102DF000DBB250246343CA5010BC704730B43B4A26
:102E00000300DBB250246343D358414C1C400B02F7
:102E1000FC25AD011D4025430300DBB25024634374
:102E2000D55030BC70470000C0000020C400002016
:102E3000FF00FFFF30B42D4A0300DBB25024634390
:102E4000D358604C1C400B06E025ED041D40254383
:102E50000300DBB250246343D55030BC7047000000
:102E6000FFFF00FFC800002030B4204A0300DBB29F
:102E700050246343D358544C1C400B07E025ED0508
:102E80001D4025430300DBB250246343D55030BCC2
:102E900070470000CC00002010B41E4A0300DBB2D3
:102EA00050246343D3185B680300DBB250246343B0
:102EB000D218516010BC704710B4164A0300DBB240
:102EC00050246343D3189B680300DBB25024634350
:102ED000D218916010BC7047FFFFFFC0D0000020E7
:102EE000FF0000F000FFFF0FD4000020DC000020F6
:102EF00010B4084A0300DBB250246343D3185B6A62
:102F00000300DBB250246343D218516210BC7047F7
:102F1000FFC0FFFFDC00002030B4784A0300DBB2C2
:102F200050246343D3189B6A1B0E1B060C02240A11
:102F30001C430300DBB250256B43D218946230BCB3
:102F4000704730B46D4A0300DBB250246343D3189A
:102F50009B6A1B021B0A0C061C430300DBB25025B4
:102F60006B43D218946230BC704730B4644A03009B
:102F7000DBB250246343D318DB6A1F24A343CC067F
:102F8000E40E1C430300DBB250256B43D218D4621D
:102F900030BC704730B4594A0300DBB2502463435D
:102FA000D318DB6A574C1C400D02FC239B012B40BD
:102FB00023430400E4B250256C431219D36230BCA1
:102FC00070470000FFFFFFF8FFFFFF8F02680160FE
:102FD0007047426801239A430B00DB07DB0F134362
:102FE0004360704710B4426804239A438B00042462
:102FF00023401343436010BC704710B44268202341
:103000009A434B01202423401343436010BC704774
:103010004168802291434160704710B442683A4B46
:1030200013400A028024640022401A43426010BC0C
:10303000704710B44268354B13404A028024A40004
:1030400022401A43426010BC704710B44268AE4B35
:1030500013408A028024E40022401A43426010BCDC
:103060007047826881607047C268120D12050B03B9
:103070001B0B1343C3607047C168802252030A438D
:10308000C260704710B4C268A04B13408A05802408
:10309000E40322401A43C26010BC704710B4C268F7
:1030A0009B4B1340CA058024240422401A43C2606B
:1030B00010BC7047C168802292040A43C260704706
:1030C000C168802212060A43C260704710B4B64934
:1030D0000A684F23134002004F24A2431A430A6098
:1030E00010BC704710B4B1490A6808239A43C30062
:1030F0000824234013430B6010BC7047DC00002001
:10310000DC000020FFC0FFFFFFFEFFFFFFFDFFFF11
:103110008020C00500680007000F70478020C005B0
:10312000006800090007000F7047F8B5002425006B
:1031300000F03EF9402000F06EF93F2000F08EF9DB
:10314000092000F092F9742000F073F9382000F0A3
:1031500077F9762000F04BF93A2000F04FF9102073
:1031600000F098F9102000F09CF9052000F08BF990
:10317000142000F057F9052000F07EF900F032F934
:1031800000F01EF9002000F031F9FFF7C7FF06013B
:10319000FFF7BEFF3043202801D30120050028009F
:1031A000C0B2002800D19EE08B48210001220B0014
:1031B000DBB2C254491C5E230E00F6B28355491C93
:1031C000864B1B680E00F6B28355491C0B00DBB220
:1031D000C254491C5D230E00F6B28355491C804B36
:1031E0001B680E00F6B28355491C0B00DBB2C254BB
:1031F000491C52230E00F6B28355491CAC4B1B6888
:103200000E00F6B28355491C0B00DBB2C254491CB8
:1032100012230E00F6B28355491CA64B1B680E0004
:10322000F6B28355491C0B00DBB2C254491C15236E
:103230000E00F6B28355491C9F4B1B680E00F6B278
:103240008355491C0B00DBB2C254491C1A230E00E3
:10325000F6B28355491C994B1B680E00F6B2835594
:10326000491C0B00DBB2C254491C22230E00F6B2EB
:103270008355491C924B1B680E00F6B28355491CBE
:103280000B00DBB2C254491C21230E00F6B2835559
:10329000491C8C4B1B680E00F6B28355491C0B0071
:1032A000DBB2C254491C23230E00F6B28355491CDD
:1032B000854B1B680E00F6B28355491C0B00DBB230
:1032C000C254491C1B220B00DBB2C254491C7F4A6A
:1032D00012680B00DBB2C254491C22000B00DBB2A7
:1032E000C254491C0F007A4801001031016041604E
:1032F00001000C3181600C6000F087F800F068F884
:1033000000F062F8F1BD0000FFFBFFFFFFFFBFFF11
:10331000FFFF7FFF70B5040020000D00EDB2012D0E
:1033200002D10425AD1C0EE00D00EDB2002D02D13E
:103330000425AD1C07E00D00EDB2022D02D10125E0
:103340002D1D00E000250E00F6B2012E03D00E0068
:10335000F6B2022E09D11600F6B2012E02D1B52620
:10336000330013E04326330010E00E00F6B2002EC7
:1033700003D00E00F6B2032E08D11600F6B2012ECD
:1033800002D1B326330001E041263300C01A401BAE
:1033900070BD10B504002000FFF798FE10BD80B589
:1033A0000120FFF79FFE01BD0400006018000060CF
:1033B00080B5FFF73AFC01BD80B5FFF730FC01BDD9
:1033C00080B5FFF7CDFC01BD80B5FFF7D0FC01BD96
:1033D0000120404908607047C80900207816006045
:1033E0007416006080B5FFF7B5FC01BD704710B5DD
:1033F00004002000C0B2FFF740FC10BD10B504006F
:103400002000C0B2FFF741FC10BD10B504002068D9
:10341000FFF7F8FB10BD10B504002000C0B2FFF7A5
:103420000AFC10BD10B504002000C0B2FFF74FFC2D
:1034300010BD10B504002000C0B2FFF733FC10BD72
:1034400010B504002000C0B2FFF739FC10BD10B564
:1034500004002000C0B2FFF7D9FB10BD10B5040076
:103460002000C0B2FFF7F4FB10BD10B5040020002F
:10347000C0B2FFF7FAFB10BD10B504002000C0B2C7
:10348000FFF72DFC10BD10B504002000C0B2FFF7FF
:103490004DFC10BD10B504002000C0B2FFF72CFC9D
:1034A00010BD10B504002000C0B2FFF732FC10BD03
:1034B00048160060481500605415006068150060EB
:1034C00088150060841500608C1500606C15006024
:1034D000B8090020101400608021090608407047D8
:1034E00040210840704710B504002000FFF790FD10
:1034F00010BD10B5040000212000FFF76AFD10BDCB
:1035000010B5040014220021200000F009F910BDBC
:1035100010B5040001212000FFF76FFD10BD38B584
:1035200005000C0021002800FFF79BFD31BD10B500
:1035300004002000FFF7BEFD10BD10B50400200000
:10354000FFF7BEFD10BD10B5040001212000FFF7FC
:1035500049FD10BD38B505000C0021002800FFF71B
:1035600035FD31BD10B5040000212000FFF755FDE9
:1035700010BD704710B5040001212000FFF74DFD7C
:1035800010BD10B5040001212000FFF722FD10BD81
:1035900010B5040001212000FFF74BFD10BD38B528
:1035A00005000C0021002800FFF75EFD31BD10B5BD
:1035B00004002000FFF760FD10BD10B504000121DC
:1035C0002000FFF76BFD10BD10B5040001212000A5
:1035D000FFF758FD10BD10B5040001212000FFF7D2
:1035E00034FD01212000FFF724FD10BD38B5050092
:1035F0000C002003000BFFF7A1FB31BD38B505001F
:103600000C00002C04D02800C0B2FFF7B7FB03E089
:103610002800C0B2FFF7C2FB31BD38B5040050220C
:10362000002107482300DBB250256B43C01800F08F
:1036300077F801212000C0B2FFF7E0FF31BD0000A4
:10364000DC00002038B505000C0021002800C0B2C5
:10365000FFF74EFC31BD38B505000C0021002800F5
:10366000C0B2FFF759FC31BD38B504000D00290088
:10367000C9B22000C0B2FFF764FC31BD38B5040008
:103680000D002900C9B22000C0B2FFF783FC31BD94
:1036900038B504000D002900C9B22000C0B2FFF700
:1036A000ADFB31BD10B504002000C0B2FFF796FBA2
:1036B00010BD38B505000C0021002800C0B2FFF78E
:1036C000FBFB31BD38B504000D002900C9B2200054
:1036D000C0B2FFF7C9FB31BD10B504002000C0B275
:1036E000FFF76CFB10BD38B505000C002100280069
:1036F000C0B2FFF7D1FB31BD38B504000D00290081
:10370000C9B22000C0B2FFF795FB31BD38B5040047
:103710000D002900C9B22000C0B2FFF726FC31BD60
:10372000FEB504000D001600019600952700009AD2
:1037300001993800FEF7F6F9F7BD7047A748016810
:10374000802252020A4302607047A44801680800C0
:103750008003C00F7047A2490A6870239A4302434E
:103760000A6070479F490A689F4B134002061A433C
:103770000A600A6880231B0413430B607047000033
:1037800080B5964800688003FBD5BF4801680222D7
:103790000A430260002100910099062904DA00BF63
:1037A0000099491C0091F7E7016804220A4302606E
:1037B00001BDB5490A68B54B134003430B60704720
:1037C0008648016810220A430260704783480168F6
:1037D000102291430160704780480168080080060C
:1037E000C00F70477F490A6860239A4302430A600A
:1037F00070477A4801680422914301607047794913
:103800000A681E239A43430013430B600A6801238E
:1038100013430B607047B4490A6806239A43024376
:103820000A60704798490A68B04B134003430B6025
:1038300070476A480168802292010A43026070471B
:103840006648016808004004C00F70478E490A6846
:10385000E0239A4302430A607047A5490A6802437D
:103860000A607047A348016808004007C00F70470E
:10387000A1490A68A14B134003430B6070479E495E
:103880000A6830239A4302430A6070479C490A68D9
:1038900082430A609B490A6882430A60704710B4F9
:1038A00099490A68994B1340C202E024A4011440CC
:1038B0001C430C600A688023DB0013430B6010BCC0
:1038C000704710B490490A68914B13408201F0246C
:1038D000A40014401C430C600A68202313430B60AF
:1038E00010BC704710B488490A681E239A434300ED
:1038F0001E241C4014430C600A68012313430B6010
:1039000010BC7047426830239A430A4342607047B4
:1039100081B075490A6802430A6009680140009154
:10392000009901B07047C5490A6802430A607047B0
:10393000C2490A6882430A6070478020C005006857
:103940000007000F70478020C005006800090007CD
:10395000000F704770B504000D0016003000C0B2B3
:1039600000280FD02000FA218900FEF783F8401EBE
:103970006843B34908600020B24908600520B24995
:10398000086004E0B048016801229143016070BD05
:1039900000B5AD480068C00301D5012000E000205B
:1039A00000BDF8B507000C00160001250122390002
:1039B000A6480068FFF7CEFFA047B04205D0FFF74A
:1039C000E7FF0028F8D00020050000220021002099
:1039D000FFF7C0FF2800C0B2F2BD00000000404861
:1039E000980040480C004048FFFFFFC0FEB500268D
:1039F0006846067001229649C820FFF7D2FF0028CA
:103A000002D10120C0B23EE02020FFF738FF802025
:103A10004001FFF707FF8F4800688F49884215D1A2
:103A20000F208E490A68024002920A68120957075D
:103A30007F0F0A68140A04400A68120B10400190B4
:103A40000868000C8506AD0E012603E008240294E8
:103A50001E2503272800FFF785FE3000C0B200288E
:103A600002D00198FFF7CBFE2000FFF73BFF029842
:103A7000FFF727FF3800FFF712FF80204000FFF715
:103A8000F7FE68460078FEBD08004048FF7FFEFF55
:103A900070B50024C0208001FFF7F8FE80200002EE
:103AA000FFF787FE6020FFF79DFEFFF7A2FEFFF7FE
:103AB0008DFE962676006A4D002229003000FFF721
:103AC00070FF002801D102200400FFF779FE0122D7
:103AD00029003000FFF765FF002801D10220040013
:103AE0002000C0B270BD000060004048FFEFFFFF43
:103AF00004005048140050481C005048FFFEFFFFCF
:103B0000280050482C00504894005048FFC7FFFF41
:103B10003FFCFFFFF1B582B06846007A00280ED066
:103B20002020FFF793FE0220FFF775FE0120FFF72C
:103B3000FAFE0120FFF7FCFE0120FFF7E9FE4548F1
:103B400000684549884215D10F22464B1868000A83
:103B500010401968090B11401C68240C22400724EE
:103B60001D682D0D254001951B681B0E1C400094FF
:103B7000012303E008221000072100237D4D0F24BC
:103B80002E680F27BE432700174037432F607A4D1A
:103B90002F68F026B743BC460F01F0263E4067462B
:103BA0003E432E602E680F27BE43044034432C60F2
:103BB0001C00E4B2002C11D0704C25680726B543D8
:103BC000019E7607760F2E43266025683826B5437A
:103BD000009EF600382737402F4327605524684D54
:103BE0002E68FF27BE4326432E60664D2E68FF27B2
:103BF000BE43662737432F60634D2E68FF27BE43C1
:103C000034432C60614C2568FF26B5431D262E43A6
:103C100026605F4C2568FF26B54359262E43266053
:103C20005C4C2568FF26B54332262E4326608E4C19
:103C3000256801262E432660F7BD0000400040485D
:103C400014E000E018E000E010E000E06000002078
:103C500065380410F81E0010CCECBCFCE41E00100B
:103C6000D9370410E81E001070B504000025FFF7D6
:103C700065FD012284496420FFF793FE002802D1EC
:103C80000420C0B274E02000C0B2002809D1FFF7C0
:103C90005AFE0601FFF751FE3043102801D10620DD
:103CA00066E02000C0B2002850D02000C0B2012839
:103CB0000AD03ED3032819D011D3052824D01CD311
:103CC00007282FD027D334E010219748FFF71AFE9A
:103CD0000020FFF7BBFD6548944908602AE02020DA
:103CE000FFF7B4FD62489149086023E04020FFF7E8
:103CF000ADFD60488D4908601CE06020FFF7A6FD1F
:103D00005D488A49086015E08020FFF79FFD5B4809
:103D1000864908600EE0A020FFF798FD58488349C7
:103D2000086007E0C020FFF791FD56487F49086012
:103D300000E0FEE7FFF77DFD01227D49C820FFF787
:103D400030FE00280AD10520C0B211E02020FFF784
:103D50007DFDFFF715FD464874490860734800680B
:103D60004249884203D000216F48FFF7CBFD002075
:103D700070BD000078160060741600604816006080
:103D800048150060541500606815006088150060D3
:103D9000841500608C15006070B505000C002800CB
:103DA000C0B2FF2801D100205CE02000C0B204288E
:103DB0000BD02000C0B2052807D02000C0B20628D2
:103DC00003D02000C0B2072801D101204AE0200022
:103DD000C0B2032805D12800C0B2002801D10120BB
:103DE00040E02800C0B2012803D02000C0B2032860
:103DF00005D10420FFF70FFD0120050002E002209D
:103E0000FFF709FDFFF79FFD0601FFF796FD304321
:103E1000102826D12000C0B2012807D12800C0B246
:103E2000012803D12A204349086016E02000C0B2CF
:103E3000012803D12800C0B2002807D02000C0B25A
:103E4000022807D12800C0B2012803D1292039490E
:103E5000086002E0282037490860374800680007FA
:103E6000FBD4002070BD00006C1500600090D003F2
:103E70000048E8010024F40000127A0000093D0027
:103E800080841E0040420F004B370410F8B5070035
:103E90000C002A482A4908602A4908612020FFF7B7
:103EA000DCFC4020FFF7D9FC8020FFF7D6FCFFF7B1
:103EB0009DFD05002800C0B2002802D02800C0B235
:103EC00031E0FFF7E5FD06003000C0B2002802D067
:103ED0003000C0B227E02000C0B2FF2802D001208D
:103EE000FFF718FE3020FFF736FC3800C0B2FFF7AE
:103EF000BBFE05002800C0B2002802D02800C0B2D6
:103F000011E03900C9B22000C0B2FFF745FF06003A
:103F10003000C0B2002802D03000C0B203E000F090
:103F20007FF862B60020F2BD001000406000002063
:103F300041380410005000400450004000000410BC
:103F400008ED00E004000020F0B5020052B2002AA3
:103F500017D418222A4B040064B2A408A4001C59E8
:103F6000FF25C6001640B540AC438D01EDB2C6003A
:103F7000324095402543020052B2920892009D5073
:103F80001BE00F221F4B182405006DB21540083DA1
:103F9000AD08AE0005006DB22A40083A92089200C2
:103FA0009A58FF25C7002740BD40AA438D01EDB2B6
:103FB000C7003C40A54015439D51F0BD00B5BFF37F
:103FC0004F8F114811490860BFF34F8F00BFFDE7C5
:103FD00080B50F48006800280FD10E4800680028FF
:103FE00003D10D480068002807D001200B498860E4
:103FF00000F09AF8FFF7E2FFFCE7012002BD0000A5
:1040000000E400E01CED00E00400FA050CED00E027
:1040100094004048100050483800504804000020E8
:1040200080B503210020FFF78FFF03210120FFF758
:104030008BFF03210220FFF787FF03210320FFF7F7
:1040400083FF03210420FFF77FFF03210520FFF7F3
:104050007BFF03210620FFF777FF03210720FFF7EF
:1040600073FF03210820FFF76FFF03210920FFF7EB
:104070006BFF03210A20FFF767FF03210B20FFF7E7
:1040800063FF03210C20FFF75FFF03210D20FFF7E3
:104090005BFF03210E20FFF757FF03210F20FFF7DF
:1040A00053FF03211020FFF74FFF03211120FFF7DB
:1040B0004BFF00211220FFF747FF03211320FFF7DA
:1040C00043FF03211420FFF73FFF03211520FFF7D3
:1040D0003BFF03211620FFF737FF01211720FFF7D1
:1040E00033FF00211820FFF72FFF03211920FFF7CE
:1040F0002BFF01BDEFF31482EFF30981002080F361
:104100001488BFF36F8FF0B543464C4655465E4664
:104110006746F8B40F4CEFF30883636006B4BFF34F
:104120004F8F30BF00BF00BF0A4C646884F308881B
:1041300082B003BCF8BC9846A146AA46B346BC462A
:10414000F0BC04BC80F3098881F31488BFF36F8F3F
:10415000104700000400002070B504000E00A568A0
:1041600061682800401C814207D32068465528001A
:10417000401CA060E068401CE060A0686168884264
:104180000DD1A2682168206900F0D1FBA1688842A6
:1041900003D00020C043E06001E00020A06070BDBB
:1041A000F7B584B01F000C9D0598029001240126EC
:1041B00002980699884206D302980699FDF75AFCA0
:1041C0000290761CF4E7BE4200D23E000D98C00774
:1041D0001BD4002D19D00D98800705D5002F03D1D1
:1041E00030206946087002E0202069460870002DE2
:1041F0000BD0AE4209D26D1E684601780498FFF7D5
:10420000ABFF0498C0680028F1D50498C068002866
:104210003CD4022F01D37F1E08E005982100FDF752
:1042200029FC019001980699884202D306984443DC
:10423000EFE705982100FDF71DFC01900598019915
:104240006143401A059012480199415C0498FFF7B8
:1042500083FF0498C068002806D420000699FDF763
:1042600009FC0400002CE4D10D98C0070ED5002DE8
:104270000CD0002D0AD0AE4208D26D1E2021049829
:10428000FFF76AFF0498C0680028F2D507B0F0BDB8
:10429000909A0410FEB582B007000A9C029800288C
:1042A00002D50298454200E0029D0126039885420E
:1042B00006DB28000399FDF7DAFB0500761CF5E71D
:1042C0000498864201D204980600002C06D0029879
:1042D000002802D40B98400700D5641E0B98800775
:1042E00002D50498002810D00B98C0070DD4002CDC
:1042F0000BD0002C09D0A64207D2641E2021380022
:10430000FFF72AFFF8680028F3D5F868002836D4AC
:104310000298002807D50298414202912D213800C9
:10432000FFF71AFF06E00B98400703D52B21380052
:10433000FFF712FFF868002821D40B988007800F40
:10434000022810D1049800280DD1002C0BD0002C8D
:1043500009D0A64207D2641E30213800FFF7FCFEC8
:10436000F8680028F3D5F868002808D40B98019065
:104370000094049B039A02993800FFF711FF05B0DF
:10438000F0BDF5B59BB00C000AA805904020069042
:10439000002007901B9809900020089020780700C3
:1043A000641C3800C0B2002800D11BE13800C0B244
:1043B000252800D00DE1002005000121029122787E
:1043C00017003A00D2B2232A13D02B2A0CD02D2A60
:1043D00002D0302A03D011E00D43641C0FE02A0004
:1043E00002251543641C0AE02A0004251543641CB9
:1043F00005E02A0008251543641C00E00290029A9B
:10440000002ADCD1039021780F003900C9B230298D
:1044100003DB3900C9B23A2906DB04902078010099
:10442000C9B22E2920D109E0641C03990A22514304
:104430003A00D2B2891830390391E4E7641C21783C
:1044400008000100C9B2302903DB0100C9B23A29D2
:1044500000DB09E0641C04990A2251430200D2B235
:10446000891830390491EAE727783800C0B26C28FF
:1044700003D03800C0B2682803D1641C207807003C
:10448000F3E73800C0B2252800D19BE058284ED071
:1044900063280AD064281CD070287BD073285DD094
:1044A00075282DD0782842D091E01C9800681C997E
:1044B00008601C98006800681C990968091D1C9A0E
:1044C00011600290029E3100C9B205A8FFF744FEB8
:1044D0007DE01C9800681C9908601C9800680068C2
:1044E0001C990968091D1C9A116002900195039896
:1044F0000090049B0A22029905A8FFF7CBFE66E014
:104500001C9800681C9908601C98006800681C9939
:104510000968091D1C9A116002900195039800908A
:10452000049B0A22029905A8FFF73AFE4FE01C9867
:1045300000681C9908601C98006800681C9909684C
:10454000091D1C9A11600290019503980090049B2C
:104550001022029905A8FFF723FE38E01C98006896
:104560001C9908601C98006806681C980068001D6B
:104570001C99086030780700761C3800C0B200280B
:1045800007D03900C9B205A8FFF7E6FD0898002852
:10459000F0D51CE01C9800681C9908601C98006805
:1045A00000681C990968091D1C9A1160029000207E
:1045B00001900820009008231022029905A8FFF717
:1045C000EFFD04E0252105A8FFF7C6FDFFE7641C09
:1045D00004E03900C9B205A8FFF7BEFD089800281D
:1045E00000D4DBE6089801280BDB0798002804D0EC
:1045F000079A0AA91B9800F09AF908980799401899
:10460000089008981DB0F0BD0CB438B505000C003A
:1046100004A800906A4621002800FFF7B2FE01B00E
:10462000029930BC03B00847F8B55F4CA8250026B6
:1046300000962700009A29003800FDF773FA03203E
:10464000206160618D48A0618D49E1618021C900D0
:104650002162A6626662E66220668A486066102071
:10466000A0662667E6666667102E06D28648714207
:104670004018C07BA055761CF6E7F1BDF1B586B0B9
:104680000C001500002001900698C7680698006984
:1046900000900098874203D20098C01B401E05E09E
:1046A00006988068C01B00994018401E06998968CA
:1046B000C91B884202D306988068C01BA84201D259
:1046C000060000E02E0006984068C0190390059689
:1046D000049403980290059A04990298FDF776F8DD
:1046E0000298019880190190A419AD1BBF19069872
:1046F0008068874201D1002007000698C760002D1E
:10470000C4D1019807B0F0BDF8B588B004000D0021
:104710001600E0680390A0680399401A029002987E
:1047200086420FD260680399401800900596049560
:10473000009F059A04993800FDF748F803988019FE
:10474000E06020E0029801906068039940180090B2
:10475000019807900695009F079A06993800FDF783
:1047600035F80298301A0190606800900198059021
:10477000029828180490009F059A04993800FDF7C4
:1047800025F80198E06009B0F0BD00B501000A69A4
:10479000CB68934204D38868401EC01A801801E099
:1047A000D01A401E00BD00005C080020F3B587B0A1
:1047B00014003F4D039503980078002801D1FFF7BE
:1047C00033FF079818214843281860300190089D4E
:1047D000019806690198C068049000270498B042C7
:1047E00024D201988068801BA04201D2009000E092
:1047F00000940198406880190290009806900298F1
:1048000005900395069A05990398FCF7DFFF039836
:1048100000983F1800982D180098241A0098361810
:1048200001988068864201D1002006000498801B10
:10483000A04201D2009000E000940098002816D019
:10484000019840688019029000980690029805909F
:104850000395069A05990398FCF7B8FF039800980A
:104860003F1800982D180098241A00983618002F29
:1048700001D001980661380009B0F0BDD09A04104B
:104880005C030020980A0020689A0410F8B507001D
:104890000E001500EFF31084012080F310882A0029
:1048A00031003800FFF782FF84F31088F2BD00006A
:1048B0005C080020F1B582B00F0015000197274871
:1048C00002991822514340180600183670690028D2
:1048D00003D0022821D010D326E03000FFF755FF87
:1048E00000900098A84201D2002405E02C002A0084
:1048F00001993000FFF708FF17E03000FFF745FF90
:1049000000900098A84201D2009C00E02C002200F8
:1049100001993000FFF7F8FE07E02A000199300006
:10492000FFF7ACFE040000E000242000FEBDF1B55E
:104930000F001600094D2878002801D1FFF774FEFA
:10494000EFF31084012080F31088320039000098C2
:10495000FFF7B0FF84F31088F2BD00005C08002070
:10496000FFB581B004000A9D134E009600980078B0
:10497000002801D1FFF758FE032C19D2EFF3108164
:10498000012080F310881820604330181830070089
:10499000002C08D002983860039878600498B860BA
:1049A00000203861F8607D6181F31088002001E00B
:1049B0000020C04305B0F0BD5C080020F0B5020047
:1049C00052B2002A17D41822B04B040064B2A408D3
:1049D000A4001C59FF25C6001640B540AC438D010C
:1049E000EDB2C600324095402543020052B2920813
:1049F00092009D501BE00F22C14B182405006DB2A0
:104A00001540083DAD08AE0005006DB22A40083AD9
:104A1000920892009A58FF25C7002740BD40AA433C
:104A20008D01EDB2C7003C40A54015439D51F0BD3E
:104A3000B4480168802252020A4302607047B148BC
:104A40000168C04A0A4002607047AF490A68BE4B1D
:104A5000134002021A430A600A68802313430B6062
:104A60007047BA4A13689B019B0903430B431360C9
:104A7000704781B0B6490A6802430A60096801407C
:104A80000091009901B0704780B500210220FFF726
:104A9000FDF9002800D0FEE700F02EF8AD480068D0
:104AA00000F08BF900F0C4F900F02DF800F02EF9B9
:104AB00000F03CF80020009000230022002100209C
:104AC000FFF74EFFA44AA5490020FFF79DFD00F027
:104AD0004DF800F079F8A248006800F01FF900F0E6
:104AE00003F800F0ACF8FAE780B5FDF7A3FB00F09F
:104AF00009FAFCF708FD01BD80B501210020C04383
:104B0000FFF75CFF01BD80B5012000F093FA0020A3
:104B100000F090FA022000F08DFA0121002000F050
:104B200025FC0121012000F021FC01BD80B586B0EB
:104B3000182200216846FDF71CF80420FFF799FFB2
:104B4000802000010090022001900290002003903C
:104B50000490059069469020C00500F060FD00219A
:104B600080204005FFF77DFF07B000BD10B58CB079
:104B700002A87C492822FCF70FFEA020C002FFF704
:104B800078FFFEF7D2FA784803C86A4603C2083AAB
:104B90006846FDF7D1FAFCF769FE00F0A8FD002891
:104BA00000D0FEE700F0EDFD02A800F073FE040067
:104BB0002000C0B2002805D02100C9B26B4800F027
:104BC00067F8FEE70CB010BD30B587B005A868499E
:104BD0000CC90CC00839083805AA0621002000F0CD
:104BE00081FE1821002000F081FE04002000C0B2E8
:104BF000002805D02100C9B25E4800F049F8FEE760
:104C000003A8029003A8801C019004A80090002330
:104C100008220021022000F06DFE05002800C0B22D
:104C2000002805D02900C9B2534800F031F804E04B
:104C30002900C9B2514800F02BF807B030BD1CB5AF
:104C4000012269460020FFF721FE0400002C1CD041
:104C500068460078312802D032280BD015E0404851
:104C600001683F2902D20168491C0160006800F018
:104C700055F80AE03A480168002902D00168491E47
:104C80000160006800F04AF8FFE713BD00E400E0AF
:104C9000704738B53A4D2878002815D100210020FA
:104CA00000F062FE04002000C0B2002805D0210000
:104CB000C9B23448FFF7ECFF06E02100C9B2324820
:104CC000FFF7E6FF0120287031BD38B52C4D28785C
:104CD000012813D100F0A0FE04002000C0B200287B
:104CE00005D02100C9B22948FFF7D2FF06E0210014
:104CF000C9B22748FFF7CCFF0020287031BD000063
:104D00001CED00E0000040489800404880B5FFF7E7
:104D10008FFE01BD80B5FFF792FE01BD10B5040006
:104D2000FFF7D3FFFFF7F6FF2000FFF78EFEFFF738
:104D3000EDFFFFF7AEFF220016490020FFF764FCED
:104D400010BD0000FFFFFEFFFFC0FFFF080040484E
:104D50005000404860000020149B0410AC990410DF
:104D600030000020609804101C9B0410DC98041094
:104D7000249B0410B897041000990410CC990410D7
:104D8000C60A0020E8970410249904101098041013
:104D9000489904103898041030B504000D00200024
:104DA0002900FCF767FE401E0849086000200849FA
:104DB000086007200749086030BD10B50400FA21DB
:104DC00089002000FFF7E8FF10BD000014E000E0BC
:104DD00018E000E010E000E011490A6882430A6030
:104DE00010490A6802430A6070470E490A68824304
:104DF0000A600B490A6802430A6070470A490A6858
:104E000082430A6009490A6802430A6070470749F9
:104E10000A6882430A6004490A6802430A607047CC
:104E200024005048200050482C005048280050488A
:104E3000F8B50120FFF7D9FF0220FFF7D6FF0420C5
:104E4000FFF7D3FF0820FFF7D0FF1020FFF7CDFFBB
:104E50002020FFF7CAFF4020FFF7BEFF8020FFF7AA
:104E6000C4FF80204000FFF7C0FF80208000FFF7D4
:104E7000B3FF8027FF003800FFF7B7FF802424012D
:104E80002000FFF7B2FF80204001FFF7AEFF802037
:104E90008001FFF7AAFF8025ED012800FFF7A5FF9D
:104EA000802636023000FFF7A0FF0120FFF7AFFF9A
:104EB0000220FFF7ACFF0420FFF7A9FF0820FFF74F
:104EC000A6FF1020FFF7A3FF2020FFF7A0FF402040
:104ED000FFF79DFF8020FFF79AFF80204000FFF73B
:104EE0008DFF80208000FFF789FF3800FFF78FFFDC
:104EF0002000FFF78CFF2800FFF789FF3000FFF745
:104F000086FFF1BD10B500F09BFD10BD81B07E495C
:104F10000A6802430A60096801400091009901B0E3
:104F200070477A490A6882430A6079490A680243ED
:104F30000A60704776490A6882430A6073490A68C2
:104F400002430A60704772490A6882430A606F49E7
:104F50000A6882430A6070476E490A6882430A60A1
:104F60006D490A6802430A6070476B490A688243C8
:104F70000A6068490A6802430A60704766490A681D
:104F800082430A6063490A6882430A60704730B40A
:104F900003680C004C4303256C43A3430C004C43B3
:104FA00054431C43046030BC704710B443688B43C7
:104FB0000C0054431C43446010BC704730B48368F9
:104FC0000C004C4303256C43A3430C004C43544357
:104FD0001C43846030BC704770B504000D0016009F
:104FE0009020C005844211D1002E03D0022E09D09A
:104FF00004D31CE02800FFF7A6FF18E02800FFF705
:1050000090FF14E02800FFF795FF10E0002E03D07A
:10501000022E09D004D30AE02800FFF7AFFF06E014
:105020002800FFF799FF02E02800FFF79EFF70BD00
:105030008161704770B506003000C0B200281DD1F4
:105040000420FFF763FF9024E40540212000FFF7D0
:10505000EFFF012240212000FFF799FF02224021AB
:105060002000FFF7ABFF002240212000FFF79DFF4B
:10507000012240212000FFF7AFFF44E03000C0B222
:1050800001281ED10820FFF741FF244D8024640031
:1050900021002800FFF7CCFF012221002800FFF7A4
:1050A00076FF022221002800FFF788FF002221005E
:1050B0002800FFF77AFF012221002800FFF78CFF6C
:1050C00021E03000C0B202281DD10820FFF71EFFEA
:1050D0008024A400114D21002800FFF7A9FF012220
:1050E00021002800FFF753FF022221002800FFF7CC
:1050F00065FF002221002800FFF757FF0122210051
:105100002800FFF769FF70BD500040482400504858
:10511000200050482C0050482800504800001048FB
:1051200000B5010049B2002905D40121C206D20E02
:1051300091406F4A116000BDF0B5020052B2002AE2
:1051400017D418226B4B040064B2A408A4001C59A5
:10515000FF25C6001640B540AC438D01EDB2C60038
:10516000324095402543020052B2920892009D5071
:105170001BE00F22AF4B182405006DB21540083D0F
:10518000AD08AE0005006DB22A40083A92089200C0
:105190009A58FF25C7002740BD40AA438D01EDB2B4
:1051A000C7003C40A54015439D51F0BD81B0A249C8
:1051B0000A6802430A60096801400091009901B041
:1051C000704781B09D490A6802430A60096801403E
:1051D0000091009901B0704799490A6802430A603A
:1051E000704700B50200D2B2032A08D1954A13686D
:1051F0000B431360944A13688B43136032E0020040
:10520000D2B2012A08D18F4A13688B4313608E4AA9
:1052100013680B43136025E00200D2B2022A08D1C2
:10522000884A13688B431360874A13688B43136063
:1052300018E00200D2B2042A08D1824A13688B43D4
:105240001360814A13688B4313600BE00200D2B2F3
:10525000052A07D17B4A13688B4313607A4A136887
:105260000B43136000BD00B57849096801408142D5
:1052700001D1012000E0002000BD744908607047A2
:1052800073490A6882430A6072490A6802430A60E5
:10529000704770490A6882430A606D490A68024390
:1052A0000A6070476B490A6882430A6068490A6865
:1052B00082430A60704768490A6882430A60674906
:1052C0000A6802430A60704764490A6882430A60B8
:1052D00061490A6802430A60704760490A6882436C
:1052E0000A605D490A6882430A6070470000000056
:1052F00000E100E000E400E030B403680C004C433F
:1053000003256C43A3430C004C4354431C430460EB
:1053100030BC704770B504000D0016009020C00529
:10532000844211D1002E03D0022E09D004D31CE0F8
:105330002800FFF7B7FF18E02800FFF7A1FF14E0EF
:105340002800FFF7A6FF10E0002E03D0022E09D0A0
:1053500004D30AE02800FFF7C0FF06E02800FFF7AB
:10536000AAFF02E02800FFF7AFFF70BDF8B5060006
:105370000F003000C0B2002811D10420FFF716FF43
:105380009024E4058025ED00002229002000FFF78D
:10539000B3FF002229002000FFF7BCFF11E030001E
:1053A000C0B201280DD10820FFF700FF2C4C0022CD
:1053B00040212000FFF7A0FF002240212000FFF73E
:1053C000A9FF3800C0B2012832D180204000FFF789
:1053D000F8FE3000C0B2002813D18024E400210080
:1053E0000120FFF7FEFE2000FFF747FF2000FFF738
:1053F000F3FE03210F20FFF79FFE0F20FFF790FE23
:1054000016E03000C0B2012812D18024E40321004C
:105410000120FFF7E6FE2000FFF72FFF2000FFF737
:10542000DBFE03211020FFF787FE1020FFF778FE38
:10543000F1BD00001CED00E0500040485400404821
:105440001800004010000040140000401C00004004
:1054500024005048200050482C0050482800504854
:105460000000104838B5050000242800C0B200280C
:1054700005D18020C000FFF7F6FE040008E02800F8
:10548000C0B2012804D18020C003FFF7ECFE040065
:10549000200032BD10B504002000C0B2002804D1A5
:1054A0008020C000FFF7E9FE07E02000C0B201281D
:1054B00003D18020C003FFF7E0FE10BD79490A68E0
:1054C00082430A6078490A6802430A607047764955
:1054D0000A6882430A6073490A6802430A60704797
:1054E00071490A6882430A606E490A6882430A6009
:1054F00070476E490A6882430A606D490A68024330
:105500000A6070476A490A6882430A6067490A6804
:1055100002430A60704766490A6882430A60634929
:105520000A6882430A60704730B403680C004C4339
:1055300003256C43A3430C004C4354431C430460B9
:1055400030BC704710B443688B430C0054431C4379
:10555000446010BC704730B483680C004C43032592
:105560006C43A3430C004C4354431C43846030BC45
:10557000704770B504000D0016009020C0058442ED
:1055800011D1002E03D0022E09D004D31CE0280034
:10559000FFF7A6FF18E02800FFF790FF14E02800AF
:1055A000FFF795FF10E0002E03D0022E09D004D3A0
:1055B0000AE02800FFF7AFFF06E02800FFF799FF99
:1055C00002E02800FFF79EFF70BD30B4036A0C00B4
:1055D0004C434C434C430F256C43A3430C004C43BA
:1055E0004C434C4354431C43046230BC704730B4BA
:1055F000446A0B0A0D0A6B430D0A6B430D0A6B4399
:105600000F256B439C430B0A0D0A6B430D0A6B433A
:105610000D0A6B4353432343436230BC7047F8B5D4
:1056200006000C0000252068E84000282DD02068E6
:105630000121A94001400F00002F24D060680228FA
:105640000CD1FF2F05D8626939003000FFF7BDFF8C
:1056500004E0626939003000FFF7C9FF6268390071
:105660003000FFF761FF6068012802D060680228FF
:1056700004D1A26839003000FFF76DFF22693900BC
:105680003000FFF776FF6D1CCDE76068012802D07F
:105690006068022804D1E26821683000FFF752FFF9
:1056A0000020F2BD24005048200050482C005048F3
:1056B0002800504801680422914301607047416806
:1056C0000800C007C00F7047416808004007C00FBE
:1056D0007047806880B2704781B018490A680243F9
:1056E0000A60096801400091009901B0704710B547
:1056F0008020C002FFF7F0FF114C2000FFF7DAFF17
:105700002000FFF7DCFF0028FAD02000FFF7DCFFC5
:10571000002801D0012000E0002010BD70B5050078
:105720000C00074E3000FFF7CAFF0028F9D0300008
:10573000FFF7CFFF2860002070BD000050004048F8
:105740000000604881B032490A6802430A60096873
:1057500001400091009901B0704700B52C490968DB
:105760000140814201D1012000E0002000BD294913
:105770000A6802430A60704726490A6882430A6041
:10578000704780B50120FFF7E8FF002808D101200D
:10579000FFF7EDFF0120FFF7EFFF0120FFF7D2FF3A
:1057A000002002BDF8B504000F0015001A4E68462F
:1057B00000783070386819490860786818490860BE
:1057C000B86818490860F8681749086020681749E0
:1057D0000860606816490860A06816490860E068BB
:1057E0001549086000F032F8144800682860144831
:1057F0000068686013480068A86013480068E860A3
:105800003078694609788842D0D10020F2BD000086
:105810006000404840004048C40A00202800006062
:105820002C00006030000060340000603800006030
:105830003C000060400000604400006048000060E0
:105840004C00006050000060540000601CB56420F3
:1058500069460870C024E405200000F011F868468D
:105860000078401E69460870200000F00EF80028FD
:1058700003D0684600780028F1D16846007816BD4C
:10588000816D01220A4382657047C16D0800C0071F
:10589000C00F704710B5C17A002480290CD8418B05
:1058A000172909D301229202914205D8C1891729EB
:1058B00002D3121F914201D982240EE00146282210
:1058C000074800F0F9F800F04FF9054949688142AE
:1058D00001D5872401E000F067FA204610BD0000E2
:1058E000100A002010B500F0AFFA10BD10B500F09E
:1058F00083FB10BDFFB583B00D9F0E9E9C460D46E9
:1059000004000BD0A00703D1600701D4200705D500
:10591000002D06D0012D04D0022D02D0822007B028
:10592000F0BD0C9800900197029662462046059BB8
:1059300000F082FB0028F2D100F014FC012806D010
:105940000C9900200880388030800020E7E7294645
:105950002046059A00F008FC0028E0D1324639467E
:105960000C9800F003FCF0E770B5274E0546306850
:105970000C46C07A002801D00C2070BD282D01D221
:10598000022C01D9122070BD00F0F5FB0028F3D1E4
:10599000012033684103D8721C4A28048018012C66
:1059A00002D0022C02D002E0401800E0401A0101AF
:1059B000CA0E4102490FD2000A43401C01030D0EDA
:1059C00001050C0E597A0007000EC900104B891D05
:1059D000596110490A600F494039CD638C63093021
:1059E00048630C4809218038016309490322F839CA
:1059F0000A6039210163074940318A69042AFCD1D0
:105A00003B210163002070BD740000200000B10440
:105A1000001500604016006006480168C87A00283A
:105A200006D00020C8720449086304490860704722
:105A30000C20704774000020C0150060081400603E
:105A4000F8B51B4D2968081D00F09CFB002429684F
:105A5000A0004618A70110360AE0304600F09CFB73
:105A6000C019810028680918001D083100F08AFB60
:105A700030680028F1D1641C2406240EE7D00D4DB7
:105A800000240B48A1000068A7010E18361D06E08F
:105A9000304600F081FBC0198100695888473068A2
:105AA0000028F5D1641C2406240EEAD0F8BD0000BD
:105AB00080000020209504108B0707D0521E22D3AF
:105AC0000B78491C0370401C8B07F7D1830730D03B
:105AD000DB4219D0401E121F08D308C943701B0AAD
